{
  "contractName": "CoinToss",
  "abi": [
    {
      "anonymous": false,
      "inputs": [
        {
          "indexed": false,
          "internalType": "uint256",
          "name": "playerBet",
          "type": "uint256"
        },
        {
          "indexed": false,
          "internalType": "uint256",
          "name": "playerChoice",
          "type": "uint256"
        }
      ],
      "name": "BetPlaced",
      "type": "event"
    },
    {
      "constant": true,
      "inputs": [],
      "name": "betAmount",
      "outputs": [
        {
          "internalType": "uint256",
          "name": "",
          "type": "uint256"
        }
      ],
      "payable": false,
      "stateMutability": "view",
      "type": "function"
    },
    {
      "constant": true,
      "inputs": [],
      "name": "owner",
      "outputs": [
        {
          "internalType": "address",
          "name": "",
          "type": "address"
        }
      ],
      "payable": false,
      "stateMutability": "view",
      "type": "function"
    },
    {
      "constant": false,
      "inputs": [
        {
          "internalType": "uint256",
          "name": "playerBet",
          "type": "uint256"
        },
        {
          "internalType": "uint256",
          "name": "playerChoice",
          "type": "uint256"
        }
      ],
      "name": "placeBet",
      "outputs": [],
      "payable": true,
      "stateMutability": "payable",
      "type": "function"
    },
    {
      "constant": false,
      "inputs": [],
      "name": "checkResult",
      "outputs": [
        {
          "internalType": "bool",
          "name": "",
          "type": "bool"
        }
      ],
      "payable": true,
      "stateMutability": "payable",
      "type": "function"
    },
    {
      "constant": false,
      "inputs": [],
      "name": "payOutBetAmount",
      "outputs": [
        {
          "internalType": "uint256",
          "name": "",
          "type": "uint256"
        }
      ],
      "payable": true,
      "stateMutability": "payable",
      "type": "function"
    },
    {
      "constant": false,
      "inputs": [],
      "name": "payOutToBalance",
      "outputs": [
        {
          "internalType": "uint256",
          "name": "",
          "type": "uint256"
        },
        {
          "internalType": "uint256",
          "name": "",
          "type": "uint256"
        }
      ],
      "payable": true,
      "stateMutability": "payable",
      "type": "function"
    }
  ],
  "bytecode": "0x6080604052336000806101000a81548173ffffffffffffffffffffffffffffffffffffffff021916908373ffffffffffffffffffffffffffffffffffffffff1602179055506106a6806100536000396000f3fe6080604052600436106100555760003560e01c8063121e0c281461005a5780634afe62b51461007857806374650ae0146100b05780638da5cb5b146100d5578063a21d942f1461012c578063d24257c01461014e575b600080fd5b610062610179565b6040518082815260200191505060405180910390f35b6100ae6004803603604081101561008e57600080fd5b810190808035906020019092919080359060200190929190505050610231565b005b6100b861049d565b604051808381526020018281526020019250505060405180910390f35b3480156100e157600080fd5b506100ea610525565b604051808273ffffffffffffffffffffffffffffffffffffffff1673ffffffffffffffffffffffffffffffffffffffff16815260200191505060405180910390f35b61013461054a565b604051808215151515815260200191505060405180910390f35b34801561015a57600080fd5b506101636105ce565b6040518082815260200191505060405180910390f35b60008060009054906101000a900473ffffffffffffffffffffffffffffffffffffffff1673ffffffffffffffffffffffffffffffffffffffff163373ffffffffffffffffffffffffffffffffffffffff16146101d457600080fd5b6000600254905060006002819055503373ffffffffffffffffffffffffffffffffffffffff166108fc829081150290604051600060405180830381858888f19350505050158015610229573d6000803e3d6000fd5b508091505090565b60008114806102405750600181145b6102b2576040517f08c379a00000000000000000000000000000000000000000000000000000000081526004018080602001828103825260168152602001807f43686f696365206d7573742062652030206f7220312e0000000000000000000081525060200191505060405180910390fd5b6509184e72a0003410156102c557600080fd5b346002600082825401925050819055506102dd610650565b82816020018181525050818160400181815250506102fa816105d4565b60043390806001815401808255809150509060018203906000526020600020016000909192909190916101000a81548173ffffffffffffffffffffffffffffffffffffffff021916908373ffffffffffffffffffffffffffffffffffffffff1602179055505080602001518160400151604051602001808381526020018281526020019250505060405160208183030381529060405280519060200120600360003373ffffffffffffffffffffffffffffffffffffffff1673ffffffffffffffffffffffffffffffffffffffff16815260200190815260200160002060010154600360003373ffffffffffffffffffffffffffffffffffffffff1673ffffffffffffffffffffffffffffffffffffffff168152602001908152602001600020600201546040516020018083815260200182815260200192505050604051602081830303815290604052805190602001201461045157fe5b7fac7ba36fe6c4c7a9dd581814563bf9c3e83cbf25f9971fe6378954bce56ab45681602001518260400151604051808381526020018281526020019250505060405180910390a1505050565b6000806000809054906101000a900473ffffffffffffffffffffffffffffffffffffffff1673ffffffffffffffffffffffffffffffffffffffff163373ffffffffffffffffffffffffffffffffffffffff16146104f957600080fd5b600060025490506000600281905550806001600082825401925050819055508060015492509250509091565b6000809054906101000a900473ffffffffffffffffffffffffffffffffffffffff1681565b600080600360003373ffffffffffffffffffffffffffffffffffffffff1673ffffffffffffffffffffffffffffffffffffffff168152602001908152602001600020600201549050600061059c61063e565b9050818114156105ba576105ae610179565b506001925050506105cb565b6105c261049d565b50506000925050505b90565b60025481565b600033905081600360008373ffffffffffffffffffffffffffffffffffffffff1673ffffffffffffffffffffffffffffffffffffffff1681526020019081526020016000206000820151816000015560208201518160010155604082015181600201559050505050565b60006002428161064a57fe5b06905090565b6040518060600160405280600081526020016000815260200160008152509056fea265627a7a72315820b91c17a30862665157186cce02cd0cbbbf97aeac16340db3698b29b6dbd4d1c564736f6c634300050c0032",
  "source": "import \"./Ownable.sol\";\r\npragma solidity 0.5.12;\r\n\r\n\r\ncontract CoinToss is Ownable {\r\n\r\n    struct Bet {\r\n    // Creates a Bet that contains id, playerBet and playerChoice\r\n\r\n        uint id;\r\n        uint playerBet;\r\n        uint playerChoice;\r\n    }\r\n\r\n    event BetPlaced(uint playerBet, uint playerChoice);\r\n\r\n    uint internal balance;\r\n    uint public betAmount;\r\n\r\n    mapping(address => Bet) private bets;\r\n    //\r\n    address[] private creators;\r\n\r\n    /*  PUBLIC FUNCTIONS  */\r\n    function placeBet(uint playerBet, uint playerChoice) public payable {\r\n        /* function makes a call to metaMask and signs for the transaction of the playerBet */\r\n        require(playerChoice == 0 || playerChoice == 1, \"Choice must be 0 or 1.\");\r\n        require(msg.value >= 0.00001 ether);\r\n        betAmount += msg.value;\r\n\r\n        Bet memory newBet;\r\n        newBet.playerBet = playerBet;\r\n        newBet.playerChoice = playerChoice;\r\n\r\n        insertBet(newBet);\r\n        creators.push(msg.sender);\r\n\r\n        assert(\r\n            keccak256(\r\n                abi.encodePacked(\r\n                    bets[msg.sender].playerBet,\r\n                    bets[msg.sender].playerChoice\r\n                )\r\n            )\r\n            ==\r\n            keccak256(\r\n                abi.encodePacked(\r\n                    newBet.playerBet,\r\n                    newBet.playerChoice\r\n                )\r\n            )\r\n        );\r\n\r\n        emit BetPlaced(newBet.playerBet, newBet.playerChoice);\r\n    }\r\n\r\n    function checkResult() public payable returns(bool) {\r\n        // check if result and playerChoice are the same number.\r\n\r\n        uint playerChoice = bets[msg.sender].playerChoice;\r\n        uint result = random();\r\n\r\n        if (result == playerChoice) {\r\n            payOutBetAmount();\r\n            return true;\r\n        } else {\r\n            payOutToBalance();\r\n            return false;\r\n        }\r\n    }\r\n\r\n    function payOutBetAmount() public payable onlyOwner returns(uint) {\r\n       // Transfer the betAmount to the owner of the Bet.\r\n\r\n        uint toPayOut = betAmount;\r\n        betAmount = 0;\r\n        msg.sender.transfer(toPayOut);\r\n        return toPayOut;\r\n    }\r\n\r\n    function payOutToBalance() public payable onlyOwner returns(uint, uint) {\r\n        // When player loses the betAmount is added to the balance of the smartcontract.\r\n\r\n        uint toBalance = betAmount;\r\n        betAmount = 0;\r\n        balance += toBalance;\r\n        return (toBalance, balance);\r\n    }\r\n\r\n    /* PRIVATE FUNCTIONS */\r\n    function random() private view returns(uint) {\r\n        // This function returns a random 0 or 1.\r\n        return now%2;\r\n    }\r\n\r\n    function insertBet(Bet memory newBet) private {\r\n        address creator = msg.sender;\r\n        bets[creator] = newBet;\r\n    }\r\n\r\n\r\n\r\n}\r\n",
  "sourcePath": "C:/Users/Ivo/Desktop/CoinToss_V1.1/CoinToss_Contract_V1.1/contracts/coinToss_V1.1.sol",
  "compiler": {
    "name": "solc",
    "version": "0.5.12+commit.7709ece9.Emscripten.clang"
  },
  "schemaVersion": "3.0.16",
  "updatedAt": "2020-01-07T22:51:41.984Z",
  "devdoc": {
    "methods": {}
  },
  "userdoc": {
    "methods": {}
  }
}