{
  "contractName": "CoinToss",
  "abi": [
    {
      "anonymous": false,
      "inputs": [
        {
          "indexed": false,
          "internalType": "uint256",
          "name": "playerBet",
          "type": "uint256"
        },
        {
          "indexed": false,
          "internalType": "uint256",
          "name": "playerChoice",
          "type": "uint256"
        }
      ],
      "name": "BetPlaced",
      "type": "event"
    },
    {
      "constant": true,
      "inputs": [],
      "name": "betAmount",
      "outputs": [
        {
          "internalType": "uint256",
          "name": "",
          "type": "uint256"
        }
      ],
      "payable": false,
      "stateMutability": "view",
      "type": "function"
    },
    {
      "constant": true,
      "inputs": [],
      "name": "owner",
      "outputs": [
        {
          "internalType": "address",
          "name": "",
          "type": "address"
        }
      ],
      "payable": false,
      "stateMutability": "view",
      "type": "function"
    },
    {
      "constant": false,
      "inputs": [
        {
          "internalType": "uint256",
          "name": "playerBet",
          "type": "uint256"
        },
        {
          "internalType": "uint256",
          "name": "playerChoice",
          "type": "uint256"
        }
      ],
      "name": "placeBet",
      "outputs": [],
      "payable": true,
      "stateMutability": "payable",
      "type": "function"
    },
    {
      "constant": false,
      "inputs": [],
      "name": "checkResult",
      "outputs": [
        {
          "internalType": "bool",
          "name": "",
          "type": "bool"
        }
      ],
      "payable": true,
      "stateMutability": "payable",
      "type": "function"
    },
    {
      "constant": false,
      "inputs": [],
      "name": "payOutBetAmount",
      "outputs": [
        {
          "internalType": "uint256",
          "name": "",
          "type": "uint256"
        }
      ],
      "payable": true,
      "stateMutability": "payable",
      "type": "function"
    },
    {
      "constant": false,
      "inputs": [],
      "name": "payOutToBalance",
      "outputs": [
        {
          "internalType": "uint256",
          "name": "",
          "type": "uint256"
        },
        {
          "internalType": "uint256",
          "name": "",
          "type": "uint256"
        }
      ],
      "payable": true,
      "stateMutability": "payable",
      "type": "function"
    }
  ],
  "bytecode": "0x6080604052336000806101000a81548173ffffffffffffffffffffffffffffffffffffffff021916908373ffffffffffffffffffffffffffffffffffffffff160217905550610783806100536000396000f3fe6080604052600436106100555760003560e01c8063121e0c281461005a5780634afe62b51461007857806374650ae0146100b05780638da5cb5b146100d5578063a21d942f1461012c578063d24257c01461014e575b600080fd5b610062610179565b6040518082815260200191505060405180910390f35b6100ae6004803603604081101561008e57600080fd5b810190808035906020019092919080359060200190929190505050610272565b005b6100b8610516565b604051808381526020018281526020019250505060405180910390f35b3480156100e157600080fd5b506100ea61059e565b604051808273ffffffffffffffffffffffffffffffffffffffff1673ffffffffffffffffffffffffffffffffffffffff16815260200191505060405180910390f35b6101346105c3565b604051808215151515815260200191505060405180910390f35b34801561015a57600080fd5b50610163610647565b6040518082815260200191505060405180910390f35b6000600360003373ffffffffffffffffffffffffffffffffffffffff1673ffffffffffffffffffffffffffffffffffffffff16815260200190815260200160002060010160009054906101000a900473ffffffffffffffffffffffffffffffffffffffff1673ffffffffffffffffffffffffffffffffffffffff163373ffffffffffffffffffffffffffffffffffffffff161461021557600080fd5b6000600254905060006002819055503373ffffffffffffffffffffffffffffffffffffffff166108fc829081150290604051600060405180830381858888f1935050505015801561026a573d6000803e3d6000fd5b508091505090565b60008114806102815750600181145b6102f3576040517f08c379a00000000000000000000000000000000000000000000000000000000081526004018080602001828103825260168152602001807f43686f696365206d7573742062652030206f7220312e0000000000000000000081525060200191505060405180910390fd5b6509184e72a00034101561030657600080fd5b3460026000828254019250508190555061031e610710565b33816020019073ffffffffffffffffffffffffffffffffffffffff16908173ffffffffffffffffffffffffffffffffffffffff168152505082816040018181525050818160600181815250506103738161064d565b60043390806001815401808255809150509060018203906000526020600020016000909192909190916101000a81548173ffffffffffffffffffffffffffffffffffffffff021916908373ffffffffffffffffffffffffffffffffffffffff1602179055505080604001518160600151604051602001808381526020018281526020019250505060405160208183030381529060405280519060200120600360003373ffffffffffffffffffffffffffffffffffffffff1673ffffffffffffffffffffffffffffffffffffffff16815260200190815260200160002060020154600360003373ffffffffffffffffffffffffffffffffffffffff1673ffffffffffffffffffffffffffffffffffffffff16815260200190815260200160002060030154604051602001808381526020018281526020019250505060405160208183030381529060405280519060200120146104ca57fe5b7fac7ba36fe6c4c7a9dd581814563bf9c3e83cbf25f9971fe6378954bce56ab45681604001518260600151604051808381526020018281526020019250505060405180910390a1505050565b6000806000809054906101000a900473ffffffffffffffffffffffffffffffffffffffff1673ffffffffffffffffffffffffffffffffffffffff163373ffffffffffffffffffffffffffffffffffffffff161461057257600080fd5b600060025490506000600281905550806001600082825401925050819055508060015492509250509091565b6000809054906101000a900473ffffffffffffffffffffffffffffffffffffffff1681565b600080600360003373ffffffffffffffffffffffffffffffffffffffff1673ffffffffffffffffffffffffffffffffffffffff16815260200190815260200160002060030154905060006106156106fe565b90508181141561063357610627610179565b50600192505050610644565b61063b610516565b50506000925050505b90565b60025481565b600033905081600360008373ffffffffffffffffffffffffffffffffffffffff1673ffffffffffffffffffffffffffffffffffffffff1681526020019081526020016000206000820151816000015560208201518160010160006101000a81548173ffffffffffffffffffffffffffffffffffffffff021916908373ffffffffffffffffffffffffffffffffffffffff16021790555060408201518160020155606082015181600301559050505050565b60006002428161070a57fe5b06905090565b604051806080016040528060008152602001600073ffffffffffffffffffffffffffffffffffffffff1681526020016000815260200160008152509056fea265627a7a723158209e0af684f6fb4bb418dee7f0d0cb26b16bd5c1201923f33abbd2cc365af0128164736f6c634300050c0032",
  "source": "import \"./Ownable.sol\";\npragma solidity 0.5.12;\n\n\ncontract CoinToss is Ownable {\n\n    struct Bet {\n    // Creates a Bet that contains id, playerBet and playerChoice\n\n        uint id;\n        address playerAddress;\n        uint playerBet;\n        uint playerChoice;\n    }\n\n    event BetPlaced(uint playerBet, uint playerChoice);\n\n    uint internal balance;\n    uint public betAmount;\n\n    mapping(address => Bet) private bets;\n    //\n    address[] private players;\n    //\n\n    modifier onlyBetOwner() {\n        require(msg.sender == bets[msg.sender].playerAddress);\n        _;\n    }\n\n    /*  PUBLIC FUNCTIONS  */\n    function placeBet(uint playerBet, uint playerChoice) public payable {\n        /* function makes a call to metaMask and signs for the transaction of the playerBet */\n        require(playerChoice == 0 || playerChoice == 1, \"Choice must be 0 or 1.\");\n        require(msg.value >= 0.00001 ether);\n        betAmount += msg.value;\n\n        Bet memory newBet;\n        newBet.playerAddress = msg.sender;\n        newBet.playerBet = playerBet;\n        newBet.playerChoice = playerChoice;\n\n        insertBet(newBet);\n        players.push(msg.sender);\n\n        assert(\n            keccak256(\n                abi.encodePacked(\n                    bets[msg.sender].playerBet,\n                    bets[msg.sender].playerChoice\n                )\n            )\n            ==\n            keccak256(\n                abi.encodePacked(\n                    newBet.playerBet,\n                    newBet.playerChoice\n                )\n            )\n        );\n\n        emit BetPlaced(newBet.playerBet, newBet.playerChoice);\n    }\n\n    function checkResult() public payable returns(bool) {\n        // check if result and playerChoice are the same number.\n\n        uint playerChoice = bets[msg.sender].playerChoice;\n        uint result = random();\n\n        if (result == playerChoice) {\n            payOutBetAmount();\n            return true;\n        } else {\n            payOutToBalance();\n            return false;\n        }\n    }\n\n    function payOutBetAmount() public payable onlyBetOwner returns(uint) {\n       // Transfer the betAmount to the owner of the Bet.\n\n        uint toPayOut = betAmount;\n        betAmount = 0;\n        msg.sender.transfer(toPayOut);\n        return toPayOut;\n    }\n\n    function payOutToBalance() public payable onlyOwner returns(uint, uint) {\n        // When player loses the betAmount is added to the balance of the smartcontract.\n\n        uint toBalance = betAmount;\n        betAmount = 0;\n        balance += toBalance;\n        return (toBalance, balance);\n    }\n\n    /* PRIVATE FUNCTIONS */\n    function random() private view returns(uint) {\n        // This function returns a random 0 or 1.\n        return now%2;\n    }\n\n    function insertBet(Bet memory newBet) private {\n        address player = msg.sender;\n        bets[player] = newBet;\n    }\n\n\n\n}\n",
  "sourcePath": "/Users/ivogarofalo/Documents/Repository/ethereum/CoinToss/CoinToss_Contract_V1.1/contracts/coinToss_V1.1.sol",
  "compiler": {
    "name": "solc",
    "version": "0.5.12+commit.7709ece9.Emscripten.clang"
  },
  "schemaVersion": "3.0.16",
  "updatedAt": "2020-02-06T20:12:48.437Z",
  "devdoc": {
    "methods": {}
  },
  "userdoc": {
    "methods": {}
  }
}